:100000000C942A000C9447000C9447000C94470071
:100010000C9447000C9447000C9447000C94470044
:100020000C9447000C9447000C9447000C94470034
:100030000C9447000C9447000C9447000C94470024
:100040000C9447000C9447000C9447000C94470014
:100050000C94470011241FBECFE5D8E0DEBFCDBF12
:1000600010E0A0E6B0E0EEE8FBE002C005900D92E3
:10007000A83AB107D9F710E0A8EAB0E001C01D9294
:10008000AF3BB107E1F70E9461040C94C5050C94E5
:1000900000000895E199FECF7FBB6EBB8DBBE29A55
:1000A000E19A08959FBB8EBBE09A8DB30895D09AD4
:1000B00087B387BB84B38FEF84BB81B381BBD898F0
:1000C00088B388BB85B315BA82B382BB0895DB01C0
:1000D000843068F4E82FF0E0EE0FFF1FE158FF4F87
:1000E0000190F081E02D80818C9381E0089580E083
:1000F0000895843060F4E82FF0E0EE0FFF1FE15820
:10010000FF4F0190F081E02D608381E0089580E051
:100110000895DB01843068F4E82FF0E0EE0FFF1F54
:10012000E958FF4F0190F081E02D80818C9381E0B0
:10013000089580E00895843060F4E82FF0E0EE0F39
:10014000FF1FE159FF4F0190F081E02D608381E0B6
:10015000089580E00895DB01803220F5E82FE695D0
:10016000E695E695F0E0EE0FFF1FE158FF4F019096
:10017000F081E02D2081482F50E04770507030E032
:1001800081E090E0042E02C0880F991F0A94E2F7E4
:100190002823392302C0359527954A95E2F72C93F9
:1001A00081E0089580E00895803230F5E82FE695EB
:1001B000E695E695F0E0EE0FFF1FE158FF4F019046
:1001C000F081E02D2081482F50E04770507081E091
:1001D00090E0042E02C0880F991F0A94E2F78095E0
:1001E0008223262F30E002C0220F331F4A95E2F708
:1001F000822B808381E0089580E00895DB018032C6
:1002000020F5E82FE695E695E695F0E0EE0FFF1F66
:10021000E958FF4F0190F081E02D2081482F50E0F8
:100220004770507030E081E090E0042E02C0880FEB
:10023000991F0A94E2F72823392302C035952795A0
:100240004A95E2F72C9381E0089580E0089580328A
:1002500030F5E82FE695E695E695F0E0EE0FFF1F06
:10026000E159FF4F0190F081E02D2081482F50E0AF
:100270004770507081E090E0042E02C0880F991FF3
:100280000A94E2F780958223262F30E002C0220FE5
:10029000331F4A95E2F7822B808381E0089580E046
:1002A00008959C018336910508F460C083E0273EE1
:1002B000380768F184E02030380708F06EC081E329
:1002C00090E09093A9008093A80080E390E0909341
:1002D000AB008093AA00C9016AE070E00E949E050D
:1002E000CB016AE070E00E949E05C0969093AD003D
:1002F0008093AC00C9016AE070E00E949E05C09640
:100300009093AF008093AE00E4E0F0E026C0C90116
:1003100064E670E00E949E05605D7F4F7093A900C7
:100320006093A800C9016AE070E00E949E05CB01BD
:100330006AE070E00E949E05C0969093AB008093A7
:10034000AA00C9016AE070E00E949E05C0969093E1
:10035000AD008093AC00E3E0F0E0EE0FFF1FE85546
:10036000FF4F1182108288EA90E008956AE070E001
:100370000E949E05605D7F4F7093A9006093A80066
:10038000C9016AE070E00E949E05C0969093AB00A0
:100390008093AA00E2E0F0E0E0CFE0E0F0E0DDCF23
:1003A0008AE161E00E94270180E090E00000019670
:1003B00021E0843F9207D1F78AE160E00E942701A3
:1003C00080E090E00000019621E0843F9207D1F7A1
:1003D00008950F931F93DF93CF930F92CDB7DEB79E
:1003E00080E160E00E94D40081E160E00E94D400DE
:1003F00082E160E00E94D40083E160E00E94D400CA
:1004000089E161E00E94270188E160E00E94270104
:100410008E010F5F1F4F19828AE161E00E94270160
:1004200080E090E00000019621E0843F9207D1F740
:1004300083E1B8010E94FE0080E090E00000019698
:1004400021E0843F9207D1F78AE160E00E94270112
:1004500080E090E00000019621E0843F9207D1F710
:100460008AE161E00E94270180E090E000000196AF
:1004700021E0843F9207D1F78981813061F289E1DF
:1004800060E00E94270180E161E00E94D40081E1E8
:1004900061E00E94D40082E161E00E94D40083E127
:1004A00061E00E94D40080E090E00000019621E02D
:1004B000843F9207D1F70F90CF91DF911F910F9159
:1004C00008951F93182F0E94E90188E161E00E94BE
:1004D0002701612F607180E10E942701612F607206
:1004E00081E10E942701612F607482E10E9427014F
:1004F000612F607883E10E9427018AE161E00E9418
:10050000270180E090E00000019621E0843F9207FF
:10051000D1F78AE160E00E94270180E090E00000CE
:10052000019621E0843F9207D1F7612F617080E14D
:100530000E942701612F627081E10E942701612FD3
:10054000647082E10E942701187083E1612F0E948C
:1005500027018AE161E00E94270180E090E000002D
:10056000019621E0843F9207D1F78AE160E00E9482
:10057000270180E090E00000019621E0843F92078F
:10058000D1F71F910895CF93DF93EC0188818823E1
:1005900031F021960E94610288818823D1F7DF9192
:1005A000CF9108951F93182F0E94E90188E160E020
:1005B0000E942701612F607180E10E942701612F55
:1005C000607281E10E942701612F607482E10E94C4
:1005D0002701612F607883E10E9427018AE161E0B1
:1005E0000E94270180E090E00000019621E0843F16
:1005F0009207D1F78AE160E00E94270180E090E055
:100600000000019621E0843F9207D1F7612F6170CD
:1006100080E10E942701612F627081E10E94270121
:10062000612F647082E10E942701187083E1612FBD
:100630000E9427018AE161E00E94270180E090E0AA
:100640000000019621E0843F9207D1F78AE160E043
:100650000E94270180E090E00000019621E0843FA5
:100660009207D1F71F91089581E00E94D202089568
:10067000613021F080540E94D202089580580E9477
:10068000D2020895813039F0823009F0089580EC6B
:100690000E94D202089580E80E94D202089583E366
:1006A0000E94D20280E090E00000019627E28031B3
:1006B0009207D1F782E30E94D20280E090E000002E
:1006C000019623E188389207D1F788E20E94D2028E
:1006D0008CE00E94D20286E00E94D20280E090E08C
:1006E0000000019621E0843F9207D1F781E00E944B
:1006F000D20280E090E00000019621E0843F920762
:10070000D1F7089581E00E94D2020895CF93DF933C
:10071000EC01413071F0862F80540E94D20203C058
:1007200021960E94610288818823D1F7DF91CF91C1
:100730000895862F80580E94D202F5CFCF93DF9381
:10074000EB01813081F0823021F409C021960E94B2
:10075000610288818823D1F7DF91CF91089580ECE1
:100760000E94D202F6CF80E80E94D202F2CF089512
:10077000EF92FF920F931F93DF93CF930F92CDB71A
:10078000DEB77B01813148F080E00F90CF91DF919F
:100790001F910F91FF90EF900895082F10E0F8013E
:1007A000E957FF4F8081BE016F5F7F4F0E94FE00BF
:1007B000D801A554BF4F2C91213061F1213080F434
:1007C000F801E956FF4F908189819817C1F1F8012E
:1007D000EE54FF4F10828081F701808381E0D5CFF6
:1007E000223011F081E0D1CFF801E956FF4F90811E
:1007F00089819817A1F1F801EB54FF4F80818F5F39
:10080000808308541F4FF80110828A3058F31C92DD
:1008100081E0BBCFF801E956FF4F9081898198179D
:10082000C1F0F801E854FF4F108282E08C93F80188
:10083000EE54FF4F8081F701808381E0A6CF82E0F4
:100840008C93F801EB54FF4F1082F801EE54FF4FE8
:10085000C2CFF801EE54FF4F2083822FECCFF80176
:10086000E854FF4F80818F5F80830B541F4FF80146
:1008700010828A3008F4B6CF81E08C9386CF0F9334
:100880001F93182F062F88E061E00E943803812F04
:100890006AE00E949205805D0E946102812F6AE0F9
:1008A0000E949205892F805D0E94610288E062E0CB
:1008B0000E943803802F805D0E9461021F910F917A
:1008C00008950E9457000E94B7030E944F030E94A0
:1008D0004900FFCFCF92DF92EF92FF920F931F93C9
:1008E000DF93CF93CDB7DEB761970FB6F894DEBF35
:1008F0000FBECDBF8E010C5F1F4F8EE0F80111922D
:100900008A95E9F7D801E0E6F0E086E001900D92E3
:100910008150E1F71A868BE0C82ED12CCC0EDD1E5B
:10092000D601E7E6F0E087E001900D928150E1F713
:100930008FE590E00E945200F82E8FE490E00E9434
:100940005200E82E82E061E00E943803C8010E9454
:10095000C30282E062E00E943803C6010E94C30223
:1009600080E0BE016F5F7F4F0E94B80381E0BE014F
:100970006E5F7F4F0E94B80382E0BE016D5F7F4FC4
:100980000E94B8038981880F880F0A81000F082B05
:100990008B81082B80916E008130B9F0813008F492
:1009A00069C0823009F459C0833039F161960FB6BD
:1009B000F894DEBF0FBECDBFCF91DF911F910F9195
:1009C000FF90EF90DF90CF900895023009F49CC023
:1009D000043009F469C0013049F7EE2039F31E2DC7
:1009E00011500E948203812F6FE470E00E944A0040
:1009F00081E5612F0E943F04D9CF88E061E00E9429
:100A000038038F2D6AE00E949205805D0E9461028A
:100A10008F2D6AE00E949205892F805D0E946102FD
:100A200088E062E00E9438038E2D805D0E946102A2
:100A3000043009F0BBCF81E061E00E94380383E617
:100A40000E94610281E062E00E94380382E30E941A
:100A5000610282E080936E00A9CF023091F10430F0
:100A600049F1013009F0A2CF0E94340383E0809362
:100A70006E009CCF023009F44EC00430A9F0013062
:100A800009F094CF8FE08F1508F090CF1F2D1150F3
:100A9000812F6FE570E00E944A000E948203812F3F
:100AA00061E50E943F0482CF0E94340382E080937C
:100AB0006E007CCF0E9434038091BE0080936E0054
:100AC00075CF8091BE0021E082278093BE0090E028
:100AD000019663E070E00E94B205682F81E00E94F9
:100AE000380383E60E9461028091BE0090E0019687
:100AF00063E070E00E94B205682F81E00E94380335
:100B000082E30E94610252CFE6E0EE1508F44ECF78
:100B10001E2D1F5F66CFFEE1FF1508F447CF1F2D86
:100B20001F5FB6CF991B79E004C0991F961708F094
:100B3000961B881F7A95C9F780950895AA1BBB1B41
:100B400051E107C0AA1FBB1FA617B70710F0A61BCD
:100B5000B70B881F991F5A95A9F780959095BC01EE
:100B6000CD01089597FB092E07260AD077FD04D002
:100B7000E5DF06D000201AF4709561957F4F089547
:0E0B8000F6F7909581959F4F0895F894FFCF5A
:100B8E0054656D703D000053706565643D00033B18
:100B9E000038003500320039003600330030003A9C
:100BAE000037003400310000010203040506070877
:100BBE00090A0B0C0D0E0F010101010101010101CA
:080BCE00010101010101010018
:00000001FF
