:100000000C942A000C9447000C9447000C94470071
:100010000C9447000C9447000C9447000C94470044
:100020000C9447000C9447000C9447000C94470034
:100030000C9447000C9447000C9447000C94470024
:100040000C9447000C9447000C9447000C94470014
:100050000C94470011241FBECFE5D8E0DEBFCDBF12
:1000600010E0A0E6B0E0E2EBFBE002C005900D92EC
:10007000AC3AB107D9F710E0ACEAB0E001C01D928C
:10008000A33CB107E1F70E9465040C94D7050C94DA
:1000900000000895E199FECF7FBB6EBB8DBBE29A55
:1000A000E19A08959FBB8EBBE09A8DB308958AB301
:1000B0008ABB87B387BB84B38FEF84BB81B3876070
:1000C00081BB8BB38BBB88B388BB85B315BA82B3B6
:1000D000887F82BB0895DB01843068F4E82FF0E06C
:1000E000EE0FFF1FED57FF4F0190F081E02D808153
:1000F0008C9381E0089580E00895843060F4E82FC7
:10010000F0E0EE0FFF1FED57FF4F0190F081E02D63
:10011000608381E0089580E00895DB01843068F415
:10012000E82FF0E0EE0FFF1FE558FF4F0190F08140
:10013000E02D80818C9381E0089580E008958430E3
:1001400060F4E82FF0E0EE0FFF1FED58FF4F019035
:10015000F081E02D608381E0089580E00895DB0167
:10016000803220F5E82FE695E695E695F0E0EE0F73
:10017000FF1FED57FF4F0190F081E02D2081482FA8
:1001800050E04770507030E081E090E0042E02C0F3
:10019000880F991F0A94E2F72823392302C0359566
:1001A00027954A95E2F72C9381E0089580E0089521
:1001B000803230F5E82FE695E695E695F0E0EE0F13
:1001C000FF1FED57FF4F0190F081E02D2081482F58
:1001D00050E04770507081E090E0042E02C0880F1C
:1001E000991F0A94E2F780958223262F30E002C0FF
:1001F000220F331F4A95E2F7822B808381E0089516
:1002000080E00895DB01803220F5E82FE695E69541
:10021000E695F0E0EE0FFF1FE558FF4F0190F081EB
:10022000E02D2081482F50E04770507030E081E091
:1002300090E0042E02C0880F991F0A94E2F7282349
:10024000392302C0359527954A95E2F72C9381E032
:10025000089580E00895803230F5E82FE695E69520
:10026000E695F0E0EE0FFF1FED58FF4F0190F08193
:10027000E02D2081482F50E04770507081E090E0E1
:10028000042E02C0880F991F0A94E2F780958223FA
:10029000262F30E002C0220F331F4A95E2F7822B4F
:1002A000808381E0089580E008959C018336910564
:1002B00008F460C083E0273E380768F184E020300E
:1002C000380708F06EC081E390E09093AD00809312
:1002D000AC0080E390E09093AF008093AE00C90142
:1002E0006AE070E00E94B005CB016AE070E00E9415
:1002F000B005C0969093B1008093B000C9016AE048
:1003000070E00E94B005C0969093B3008093B20055
:10031000E4E0F0E026C0C90164E670E00E94B005A8
:10032000605D7F4F7093AD006093AC00C9016AE0DF
:1003300070E00E94B005CB016AE070E00E94B00559
:10034000C0969093AF008093AE00C9016AE070E060
:100350000E94B005C0969093B1008093B000E3E096
:10036000F0E0EE0FFF1FE455FF4F118210828CEA80
:1003700090E008956AE070E00E94B005605D7F4FF4
:100380007093AD006093AC00C9016AE070E00E9418
:10039000B005C0969093AF008093AE00E2E0F0E02D
:1003A000E0CFE0E0F0E0DDCF8AE161E00E942B01E8
:1003B00080E090E00000019621E0843F9207D1F7B1
:1003C0008AE160E00E942B0180E090E0000001964D
:1003D00021E0843F9207D1F708950F931F93DF9395
:1003E000CF930F92CDB7DEB780E160E00E94D800D6
:1003F00081E160E00E94D80082E160E00E94D800C4
:1004000083E160E00E94D80089E161E00E942B0155
:1004100088E160E00E942B018E010F5F1F4F19825F
:100420008AE161E00E942B0180E090E000000196EB
:1004300021E0843F9207D1F783E1B8010E940201D5
:1004400080E090E00000019621E0843F9207D1F720
:100450008AE160E00E942B0180E090E000000196BC
:1004600021E0843F9207D1F78AE161E00E942B01ED
:1004700080E090E00000019621E0843F9207D1F7F0
:100480008981813061F289E160E00E942B0180E185
:1004900061E00E94D80081E161E00E94D80082E121
:1004A00061E00E94D80083E161E00E94D80080E012
:1004B00090E00000019621E0843F9207D1F70F9071
:1004C000CF91DF911F910F9108951F93182F0E94D4
:1004D000ED0188E161E00E942B01612F607180E1F4
:1004E0000E942B01612F607281E10E942B01612F1C
:1004F000607482E10E942B01612F607883E10E9489
:100500002B018AE161E00E942B0180E090E0000075
:10051000019621E0843F9207D1F78AE160E00E94D2
:100520002B0180E090E00000019621E0843F9207DB
:10053000D1F7612F617080E10E942B01612F627001
:1005400081E10E942B01612F647082E10E942B01E6
:10055000187083E1612F0E942B018AE161E00E9403
:100560002B0180E090E00000019621E0843F92079B
:10057000D1F78AE160E00E942B0180E090E000006A
:10058000019621E0843F9207D1F71F910895CF9300
:10059000DF93EC018881882331F021960E94650267
:1005A00088818823D1F7DF91CF9108951F93182F69
:1005B0000E94ED0188E160E00E942B01612F6071D3
:1005C00080E10E942B01612F607281E10E942B016A
:1005D000612F607482E10E942B01612F607883E1BA
:1005E0000E942B018AE161E00E942B0180E090E0F3
:1005F0000000019621E0843F9207D1F78AE160E094
:100600000E942B0180E090E00000019621E0843FF1
:100610009207D1F7612F617080E10E942B01612F59
:10062000627081E10E942B01612F647082E10E945F
:100630002B01187083E1612F0E942B018AE161E098
:100640000E942B0180E090E00000019621E0843FB1
:100650009207D1F78AE160E00E942B0180E090E0F0
:100660000000019621E0843F9207D1F71F91089581
:1006700081E00E94D6020895613021F080540E94EA
:10068000D602089580580E94D6020895813039F02C
:10069000823009F0089580EC0E94D602089580E827
:1006A0000E94D602089583E30E94D60280E090E083
:1006B0000000019627E280319207D1F782E30E9481
:1006C000D60280E090E00000019623E1883892078E
:1006D000D1F788E20E94D6028CE00E94D60286E022
:1006E0000E94D60280E090E00000019621E0843F65
:1006F0009207D1F781E00E94D60280E090E00000EE
:10070000019621E0843F9207D1F7089581E00E948D
:10071000D6020895CF93DF93EC01413071F0862F1C
:1007200080540E94D60203C021960E9465028881EF
:100730008823D1F7DF91CF910895862F80580E94AA
:10074000D602F5CFCF93DF93EB01813081F0823079
:1007500021F409C021960E94650288818823D1F77F
:10076000DF91CF91089580EC0E94D602F6CF80E809
:100770000E94D602F2CF0895EF92FF920F931F933B
:10078000DF93CF930F92CDB7DEB77B01813148F075
:1007900080E00F90CF91DF911F910F91FF90EF902C
:1007A0000895082F10E0F801E557FF4F8081BE0142
:1007B0006F5F7F4F0E940201D801A154BF4F2C915F
:1007C000213061F1213080F4F801E556FF4F90812E
:1007D00089819817C1F1F801EA54FF4F1082808196
:1007E000F701808381E0D5CF223011F081E0D1CFB5
:1007F000F801E556FF4F908189819817A1F1F80122
:10080000E754FF4F80818F5F808304541F4FF801AE
:1008100010828A3058F31C9281E0BBCFF801E55674
:10082000FF4F908189819817C1F0F801E454FF4F80
:10083000108282E08C93F801EA54FF4F8081F70127
:10084000808381E0A6CF82E08C93F801E754FF4FCC
:100850001082F801EA54FF4FC2CFF801EA54FF4F6B
:100860002083822FECCFF801E454FF4F80818F5F0B
:10087000808307541F4FF80110828A3008F4B6CFE6
:1008800081E08C9386CF0F931F93182F062F88E05B
:1008900061E00E943C03812F6AE00E94A405805D14
:1008A0000E946502812F6AE00E94A405892F805D65
:1008B0000E94650288E062E00E943C03802F805D18
:1008C0000E9465021F910F9108950E9457000E9497
:1008D000BB030E9453030E94490084E16FE570E06E
:1008E0000E944A0082E06FE470E00E944A0080E6C5
:1008F00090E00E94C702FFCFCF92DF92EF92FF926B
:100900000F931F93DF93CF93CDB7DEB761970FB6E9
:10091000F894DEBF0FBECDBF8E010C5F1F4F8EE07F
:10092000F80111928A95E9F7D801E4E6F0E086E053
:1009300001900D928150E1F71A868BE0C82ED12CE0
:10094000CC0EDD1ED601EBE6F0E087E001900D92C3
:100950008150E1F78FE590E00E945200F82E8FE47D
:1009600090E00E945200E82E82E061E00E943C0389
:10097000C8010E94C70282E062E00E943C03C601F7
:100980000E94C70280E0BE016F5F7F4F0E94BC03E0
:1009900081E0BE016E5F7F4F0E94BC0382E0BE011A
:1009A0006D5F7F4F0E94BC038981880F880F0A8189
:1009B000000F082B8B81082B809172008130B9F0D9
:1009C000813008F469C0823009F459C0833039F1AC
:1009D00061960FB6F894DEBF0FBECDBFCF91DF9109
:1009E0001F910F91FF90EF90DF90CF90089502300C
:1009F00009F49CC0043009F469C0013049F7EE20C5
:100A000039F31E2D11500E948603812F6FE470E090
:100A10000E944A0081E5612F0E944304D9CF88E0FB
:100A200061E00E943C038F2D6AE00E94A405805D76
:100A30000E9465028F2D6AE00E94A405892F805DC7
:100A40000E94650288E062E00E943C038E2D805D7A
:100A50000E946502043009F0BBCF81E061E00E9492
:100A60003C0383E60E94650281E062E00E943C0351
:100A700082E30E94650282E080937200A9CF023077
:100A800091F1043049F1013009F0A2CF0E943803FE
:100A900083E0809372009CCF023009F44EC0043092
:100AA000A9F0013009F094CF8FE08F1508F090CFB6
:100AB0001F2D1150812F6FE570E00E944A000E94A7
:100AC0008603812F61E50E94430482CF0E94380390
:100AD00082E0809372007CCF0E9438038091C20034
:100AE0008093720075CF8091C20021E082278093AD
:100AF000C20090E0019663E070E00E94C405682F98
:100B000081E00E943C0383E60E9465028091C2005E
:100B100090E0019663E070E00E94C405682F81E0D8
:100B20000E943C0382E30E94650252CFE6E0EE158C
:100B300008F44ECF1E2D1F5F66CFFEE1FF1508F4AF
:100B400047CF1F2D1F5FB6CF991B79E004C0991FB7
:100B5000961708F0961B881F7A95C9F78095089517
:100B6000AA1BBB1B51E107C0AA1FBB1FA617B707D3
:100B700010F0A61BB70B881F991F5A95A9F78095EF
:100B80009095BC01CD01089597FB092E07260AD048
:100B900077FD04D0E5DF06D000201AF4709561954A
:100BA0007F4F0895F6F7909581959F4F0895F8949B
:020BB000FFCF75
:100BB2007366730054656D703D0000537065656423
:100BC2003D00033B00380035003200390036003367
:100BD2000030003A00370034003100000102030403
:100BE20005060708090A0B0C0D0E0F010101010190
:0C0BF200010101010101010101010100EC
:00000001FF
