:100000000C942A000C9447000C9447000C94470071
:100010000C9447000C9447000C9447000C94470044
:100020000C9447000C9447000C9447000C94470034
:100030000C9447000C9447000C9447000C94470024
:100040000C9447000C9447000C9447000C94470014
:100050000C94470011241FBECFE5D8E0DEBFCDBF12
:1000600010E0A0E6B0E0ECE0F4E102C005900D92F3
:10007000A83AB107D9F710E0A8EAB0E001C01D9294
:10008000AF3BB107E1F70E94B1090C94040A0C944C
:1000900000000895E199FECF7FBB6EBB8DBBE29A55
:1000A000E19A08959FBB8EBBE09A8DB308958AB301
:1000B0008ABB87B387BB84B38FEF84BB91B381BB0B
:1000C0008BB38BBB88B388BB85B315BA82B312BA26
:1000D0000895DB01843068F4E82FF0E0EE0FFF1F95
:1000E000E158FF4F0190F081E02D80818C9381E0F9
:1000F000089580E00895843060F4E82FF0E0EE0F7A
:10010000FF1FE158FF4F0190F081E02D608381E0F7
:10011000089580E00895DB01843068F4E82FF0E072
:10012000EE0FFF1FE958FF4F0190F081E02D808115
:100130008C9381E0089580E00895843060F4E82F86
:10014000F0E0EE0FFF1FE159FF4F0190F081E02D2D
:10015000608381E0089580E00895DB01803220F51E
:10016000E82FE695E695E695F0E0EE0FFF1FE158E3
:10017000FF4F0190F081E02D2081482F50E0477023
:10018000507030E081E090E0042E02C0880F991F8B
:100190000A94E2F72823392302C0359527954A951A
:1001A000E2F72C9381E0089580E00895803230F5E5
:1001B000E82FE695E695E695F0E0EE0FFF1FE15893
:1001C000FF4F0190F081E02D2081482F50E04770D3
:1001D000507081E090E0042E02C0880F991F0A94AD
:1001E000E2F780958223262F30E002C0220F331FD2
:1001F0004A95E2F7822B808381E0089580E008959C
:10020000DB01803220F5E82FE695E695E695F0E0F3
:10021000EE0FFF1FE958FF4F0190F081E02D208184
:10022000482F50E04770507030E081E090E0042E9D
:1002300002C0880F991F0A94E2F72823392302C0CD
:10024000359527954A95E2F72C9381E0089580E053
:100250000895803230F5E82FE695E695E695F0E0D2
:10026000EE0FFF1FE159FF4F0190F081E02D20813B
:10027000482F50E04770507081E090E0042E02C09B
:10028000880F991F0A94E2F780958223262F30E089
:1002900002C0220F331F4A95E2F7822B808381E050
:1002A000089580E008959C018336910508F460C0AC
:1002B00083E0273E380768F184E02030380708F0F3
:1002C0006EC081E390E09093A9008093A80080E342
:1002D00090E09093AB008093AA00C9016AE070E0BF
:1002E0000E94DD09CB016AE070E00E94DD09C09642
:1002F0009093AD008093AC00C9016AE070E00E9469
:10030000DD09C0969093AF008093AE00E4E0F0E08A
:1003100026C0C90164E670E00E94DD09605D7F4F80
:100320007093A9006093A800C9016AE070E00E9480
:10033000DD09CB016AE070E00E94DD09C096909370
:10034000AB008093AA00C9016AE070E00E94DD0959
:10035000C0969093AD008093AC00E3E0F0E0EE0F28
:10036000FF1FE855FF4F1182108288EA90E0089540
:100370006AE070E00E94DD09605D7F4F7093A90024
:100380006093A800C9016AE070E00E94DD09C09690
:100390009093AB008093AA00E2E0F0E0E0CFE0E0D1
:1003A000F0E0DDCF8AE161E00E94290180E090E089
:1003B0000000019621E0843F9207D1F78AE160E0D6
:1003C0000E94290180E090E00000019621E0843F36
:1003D0009207D1F708950F931F93DF93CF930F9256
:1003E000CDB7DEB780E160E00E94D60081E160E039
:1003F0000E94D60082E160E00E94D60083E160E0C6
:100400000E94D60084E160E00E94D60085E160E0B1
:100410000E94D60086E160E00E94D60087E160E09D
:100420000E94D60089E161E00E94290188E160E034
:100430000E9429018E010F5F1F4F19828AE161E03E
:100440000E94290180E090E00000019621E0843FB5
:100450009207D1F787E1B8010E94000180E090E0A7
:100460000000019621E0843F9207D1F78AE160E025
:100470000E94290180E090E00000019621E0843F85
:100480009207D1F78AE161E00E94290180E090E0C3
:100490000000019621E0843F9207D1F789818130E5
:1004A00061F289E160E00E94290180E161E00E943F
:1004B000D60081E161E00E94D60082E161E00E9405
:1004C000D60083E161E00E94D60084E161E00E94F1
:1004D000D60085E161E00E94D60086E161E00E94DD
:1004E000D60087E161E00E94D6000F90CF91DF91A6
:1004F0001F910F9108951F93182F0E94EB0188E11F
:1005000061E00E942901612F617080E10E94290150
:10051000612F627081E10E942901612F647082E184
:100520000E942901612F687083E10E942901612FD7
:10053000607184E10E942901612F607285E10E944F
:100540002901612F607486E10E942901107887E1FA
:10055000612F0E9429018AE161E00E94290180E067
:1005600090E00000019621E0843F9207D1F78AE1F4
:1005700060E00E94290180E090E00000019621E007
:10058000843F9207D1F71F9108951F93182F0E945F
:10059000EB0188E160E00E942901612F617080E138
:1005A0000E942901612F627081E10E942901612F5F
:1005B000647082E10E942901612F687083E10E94CA
:1005C0002901612F607184E10E942901612F60720D
:1005D00085E10E942901612F607486E10E94290152
:1005E000107887E1612F0E9429018AE161E00E9471
:1005F000290180E090E00000019621E0843F92070D
:10060000D1F78AE160E00E94290180E090E00000DB
:10061000019621E0843F9207D1F71F9108951F931F
:10062000CF93DF93EC011881112309F44BC00E9492
:10063000EB0188E161E00E942901612F617080E196
:100640000E942901612F627081E10E942901612FBE
:10065000647082E10E942901612F687083E10E9429
:100660002901612F607184E10E942901612F60726C
:1006700085E10E942901612F607486E10E942901B1
:10068000107887E1612F0E9429018AE161E00E94D0
:10069000290180E090E00000019621E0843F92076C
:1006A000D1F78AE160E00E94290180E090E000003B
:1006B000019621E0843F9207D1F7219618811123FA
:1006C00009F0B5CFDF91CF911F9108950E94EB0102
:1006D00088E160E00E94290180E161E00E94290137
:1006E00081E160E00E94290182E160E00E9429012D
:1006F00083E160E00E94290184E160E00E94290119
:1007000085E160E00E94290186E160E00E94290104
:1007100087E160E00E9429018AE161E00E942901ED
:1007200080E090E00000019621E0843F9207D1F73D
:100730008AE160E00E94290180E090E000000196DB
:1007400021E0843F9207D1F708950E94EB0188E1F0
:1007500060E00E94290180E160E00E94290181E1BE
:1007600060E00E94290182E160E00E94290183E1AA
:1007700068E00E94290184E160E10E94290185E18D
:1007800060E20E94290186E160E00E94290187E180
:1007900060E00E9429018AE161E00E94290180E075
:1007A00090E00000019621E0843F9207D1F78AE1B2
:1007B00060E00E94290180E090E00000019621E0C5
:1007C000843F9207D1F780E090E00000019627E295
:1007D00080319207D1F70E94EB0188E160E00E942E
:1007E000290180E161E00E94290181E160E00E942D
:1007F000290182E160E00E94290183E160E00E941A
:10080000290184E160E00E94290185E160E00E9405
:10081000290186E160E00E94290187E160E00E94F1
:1008200029018AE161E00E94290180E090E0000056
:10083000019621E0843F9207D1F78AE160E00E94AF
:10084000290180E090E00000019621E0843F9207BA
:10085000D1F780E090E00000019621E0843F92070C
:10086000D1F70E94EB0188E160E00E94290180E15C
:1008700060E00E94290181E160E00E94290182E19B
:1008800064E00E94290183E168E00E94290184E17B
:1008900060E00E94290185E160E00E94290186E173
:1008A00060E00E94290187E160E00E9429018AE15D
:1008B00061E00E94290180E090E00000019621E0C3
:1008C000843F9207D1F78AE160E00E94290180E02D
:1008D00090E00000019621E0843F9207D1F780E08C
:1008E00090E00000019621E0843F9207D1F70E943A
:1008F000EB0188E160E00E94290180E160E00E9454
:10090000290181E160E00E94290182E160E00E940A
:10091000290183E160E00E94290184E160E00E94F6
:10092000290185E160E00E94290186E160E00E94E2
:10093000290187E160E80E9429018AE161E00E94C3
:10094000290180E090E00000019621E0843F9207B9
:10095000D1F78AE160E00E94290180E090E0000088
:10096000019621E0843F9207D1F780E090E00000FB
:10097000019621E0843F9207D1F708950E94EB0190
:1009800088E160E00E94290180E161E00E94290184
:1009900081E160E00E94290182E160E00E9429017A
:1009A00083E160E00E94290184E160E00E94290166
:1009B00085E160E00E94290186E160E00E94290152
:1009C00087E160E00E9429018AE161E00E9429013B
:1009D00080E090E00000019621E0843F9207D1F78B
:1009E0008AE160E00E94290180E090E00000019629
:1009F00021E0843F9207D1F708951F93613009F4F5
:100A00004AC0182F10540E94EB0188E160E00E9458
:100A10002901612F617080E10E942901612F6270BC
:100A200081E10E942901612F647082E10E94290105
:100A3000612F687083E10E942901612F607184E158
:100A40000E942901612F607285E10E942901612FB6
:100A5000607486E10E942901107887E1612F0E946D
:100A600029018AE161E00E94290180E090E0000014
:100A7000019621E0843F9207D1F78AE160E00E946D
:100A8000290180E090E00000019621E0843F920778
:100A9000D1F71F910895182F10580E94EB0188E19B
:100AA00060E00E942901612F617080E10E942901AC
:100AB000612F627081E10E942901612F647082E1DF
:100AC0000E942901612F687083E10E942901612F32
:100AD000607184E10E942901612F607285E10E94AA
:100AE0002901612F607486E10E942901107887E155
:100AF000612F0E9429018AE161E00E94290180E0C2
:100B000090E00000019621E0843F9207D1F78AE14E
:100B100060E00E94290180E090E00000019621E061
:100B2000843F9207D1F71F9108951F93CF93DF93CE
:100B3000EC01413009F49BC0162F10540E94EB01C8
:100B400088E160E00E942901612F617080E10E94CC
:100B50002901612F627081E10E942901612F647077
:100B600082E10E942901612F687083E10E942901BE
:100B7000612F607184E10E942901612F607285E11B
:100B80000E942901612F607486E10E94290110787A
:100B900087E1612F0E9429018AE161E00E94290119
:100BA00080E090E00000019621E0843F9207D1F7B9
:100BB0008AE160E00E94290180E090E00000019657
:100BC00021E0843F9207D1F71881112309F44BC02B
:100BD0000E94EB0188E161E00E942901612F6170B0
:100BE00080E10E942901612F627081E10E94290148
:100BF000612F647082E10E942901612F687083E196
:100C00000E942901612F607184E10E942901612FF6
:100C1000607285E10E942901612F607486E10E9463
:100C20002901107887E1612F0E9429018AE161E0A2
:100C30000E94290180E090E00000019621E0843FBD
:100C40009207D1F78AE160E00E94290180E090E0FC
:100C50000000019621E0843F9207D1F72196188188
:100C6000112309F0B5CFDF91CF911F910895162F71
:100C700010580E94EB0188E160E00E942901612F79
:100C8000617080E10E942901612F627081E10E9400
:100C90002901612F647082E10E942901612F68702F
:100CA00083E10E942901612F607184E10E94290182
:100CB000612F607285E10E942901612F607486E1D5
:100CC0000E942901107887E1612F0E9429018AE1A1
:100CD00061E00E94290180E090E00000019621E09F
:100CE000843F9207D1F78AE160E00E94290180E009
:100CF00090E00000019621E0843F9207D1F764CF95
:100D0000813009F442C0823009F008950E94EB015D
:100D100088E160E00E94290180E160E00E942901F1
:100D200081E160E00E94290182E160E00E942901E6
:100D300083E160E00E94290184E160E00E942901D2
:100D400085E160E00E94290186E160E40E942901BA
:100D500087E160E80E9429018AE161E00E9429019F
:100D600080E090E00000019621E0843F9207D1F7F7
:100D70008AE160E00E94290180E090E00000019695
:100D800021E0843F9207D1F708950E94EB0188E1AA
:100D900060E00E94290180E160E00E94290181E178
:100DA00060E00E94290182E160E00E94290183E164
:100DB00060E00E94290184E160E00E94290185E150
:100DC00060E00E94290186E160E00E94290187E13C
:100DD00060E80E9429018AE161E00E94290180E027
:100DE00090E00000019621E0843F9207D1F78AE16C
:100DF00060E00E94290180E090E00000019621E07F
:100E0000843F9207D1F708951F93CF93DF93EB01AF
:100E1000813009F456C0823009F492C01881112340
:100E200009F44BC00E94EB0188E161E00E942901B6
:100E3000612F617080E10E942901612F627081E160
:100E40000E942901612F647082E10E942901612FB3
:100E5000687083E10E942901612F607184E10E9422
:100E60002901612F607285E10E942901612F607460
:100E700086E10E942901107887E1612F0E942901F3
:100E80008AE161E00E94290180E090E00000019683
:100E900021E0843F9207D1F78AE160E00E942901B6
:100EA00080E090E00000019621E0843F9207D1F7B6
:100EB00021961881112309F0B5CFDF91CF911F91B1
:100EC00008950E94EB0188E160E00E94290180E121
:100ED00060E00E94290181E160E00E94290182E135
:100EE00060E00E94290183E160E00E94290184E121
:100EF00060E00E94290185E160E00E94290186E10D
:100F000060E00E94290187E160E80E9429018AE1EE
:100F100061E00E94290180E090E00000019621E05C
:100F2000843F9207D1F78AE160E00E94290180E0C6
:100F300090E00000019621E0843F9207D1F76ECF48
:100F40000E94EB0188E160E00E94290180E160E0FD
:100F50000E94290181E160E00E94290182E160E0B4
:100F60000E94290183E160E00E94290184E160E0A0
:100F70000E94290185E160E00E94290186E160E488
:100F80000E94290187E160E80E9429018AE161E06D
:100F90000E94290180E090E00000019621E0843F5A
:100FA0009207D1F78AE160E00E94290180E090E099
:100FB0000000019621E0843F9207D1F72FCF0895DA
:100FC000EF92FF920F931F93DF93CF930F92CDB7C2
:100FD000DEB77B01813148F080E00F90CF91DF9147
:100FE0001F910F91FF90EF900895082F10E0F801E6
:100FF000E957FF4F8081BE016F5F7F4F0E94000164
:10100000D801A554BF4F2C91213061F1213080F4DB
:10101000F801E956FF4F908189819817C1F1F801D5
:10102000EE54FF4F10828081F701808381E0D5CF9D
:10103000223011F081E0D1CFF801E956FF4F9081C5
:1010400089819817A1F1F801EB54FF4F80818F5FE0
:10105000808308541F4FF80110828A3058F31C9285
:1010600081E0BBCFF801E956FF4F90818981981745
:10107000C1F0F801E854FF4F108282E08C93F80130
:10108000EE54FF4F8081F701808381E0A6CF82E09C
:101090008C93F801EB54FF4F1082F801EE54FF4F90
:1010A000C2CFF801EE54FF4F2083822FECCFF8011E
:1010B000E854FF4F80818F5F80830B541F4FF801EE
:1010C00010828A3008F4B6CF81E08C9386CF0F93DC
:1010D0001F93182F062F88E061E00E94FD04812FE6
:1010E0006AE00E94D109805D0E947B02812F6AE044
:1010F0000E94D109892F805D0E947B0288E062E016
:101100000E94FD04802F805D0E947B021F910F9141
:101110000895CF92DF92EF92FF920F931F93DF9388
:10112000CF93CDB7DEB761970FB6F894DEBF0FBE91
:10113000CDBF8E010C5F1F4F8EE0F80111928A9592
:10114000E9F7D801E0E6F0E086E001900D928150E9
:10115000E1F71A868BE0C82ED12CCC0EDD1ED6010D
:10116000E7E6F0E087E001900D928150E1F78FE52E
:1011700090E00E945200F82E8FE490E00E9452000E
:10118000E82E82E061E00E94FD04C8010E940F0386
:1011900082E062E00E94FD04C6010E940F0380E02D
:1011A000BE016F5F7F4F0E94E00781E0BE016E5F6E
:1011B0007F4F0E94E00782E0BE016D5F7F4F0E947B
:1011C000E0078981880F880F0A81000F082B8B8127
:1011D000082B80916E008130B9F0813008F469C02D
:1011E000823009F459C0833039F161960FB6F89412
:1011F000DEBF0FBECDBFCF91DF911F910F91FF904A
:10120000EF90DF90CF900895023009F49CC0043035
:1012100009F469C0013049F7EE2039F31E2D115051
:101220000E946603812F6FE470E00E944A0081E50E
:10123000612F0E946708D9CF88E061E00E94FD0419
:101240008F2D6AE00E94D109805D0E947B028F2D64
:101250006AE00E94D109892F805D0E947B0288E0AC
:1012600062E00E94FD048E2D805D0E947B020430AE
:1012700009F0BBCF81E061E00E94FD0483E60E949B
:101280007B0281E062E00E94FD0482E30E947B0217
:1012900082E080936E00A9CF023091F1043049F1D1
:1012A000013009F0A2CF0E94BE0483E080936E005B
:1012B0009CCF023009F44EC00430A9F0013009F08F
:1012C00094CF8FE08F1508F090CF1F2D1150812FF4
:1012D0006FE570E00E944A000E946603812F61E57D
:1012E0000E94670882CF0E94BE0482E080936E0055
:1012F0007CCF0E94BE048091BE0080936E0075CFAB
:101300008091BE0021E082278093BE0090E001968C
:1013100063E070E00E94F109682F81E00E94FD0403
:1013200083E60E947B028091BE0090E0019663E01C
:1013300070E00E94F109682F81E00E94FD0482E3C1
:101340000E947B0252CFE6E0EE1508F44ECF1E2D30
:101350001F5F66CFFEE1FF1508F447CF1F2D1F5F0B
:10136000B6CF0E9457000E94DF070E94A5030E948B
:10137000490081E40E947B0280E090E00000019639
:1013800023EC80359207D1F784E16FE570E00E948D
:101390004A0082E06FE470E00E944A000E948908DF
:1013A000FDCF991B79E004C0991F961708F0961B92
:1013B000881F7A95C9F780950895AA1BBB1B51E138
:1013C00007C0AA1FBB1FA617B70710F0A61BB70BB5
:1013D000881F991F5A95A9F780959095BC01CD015A
:1013E000089597FB092E07260AD077FD04D0E5DF84
:1013F00006D000201AF4709561957F4F0895F6F796
:0C140000909581959F4F0895F894FFCFC0
:10140C0054656D703D000053706565643D00033B91
:10141C000038003500320039003600330030003A15
:10142C0000370034003100000102030405060708F0
:10143C00090A0B0C0D0E0F01010101010101010143
:08144C00010101010101010091
:00000001FF
